:100AF30053B1FE43B20153B1EF43B21053B3F743C3
:100B0300B40853B3FB43B40453B3FD43B40253B12A
:100B1300FD43B20253B3EF43B41053B3FE43B401E6
:100B230053B1FB43B20453B1F743B20853B17F430C
:100B3300B28053ACFE43AD0153B37F43B48053B390
:0B0B4300BF43B44053B3DF43B4202293
:10051A009000561203C60000000090005A1203C64B
:10052A0000000000120AF3120C58020652900056FC
:10053A001203C60000000090005A1203C600000011
:10054A0000E4900050F0A3F0900056E0F8A3E0F920
:10055A00A3E0FAA3E0FBC000C001C002C0037F030E
:10056A007E00120695E4FCFDD003D002D001D00033
:10057A00EB2FFFEA3EFEED39FDEC38FC90005612F7
:10058A0003BA900052E0FEA3E0FFA3E0FCA3E0FD63
:10059A0012089A90005AE0F8A3E0F9A3E0FAA3E05F
:1005AA00FBC000C001C002C0037F047E0012069592
:1005BA00E4FCFDD003D002D001D000EB2FFFEA3ECD
:1005CA00FEED39FDEC38FC90005A1203BA90005245
:1005DA00E0FEA3E0FFA3E0FCA3E0FD12089A90006E
:1005EA0051E004F07006900050E004F0C39000510E
:1005FA00E09408900050E064809480500302055211
:10060A00E47B08FAF9F8900056E0FCA3E0FDA3E0C9
:10061A00FEA3E0FF120BF0900052EEF0A3EFF0E41D
:10062A007B08FAF9F890005AE0FCA3E0FDA3E0FE8B
:10063A00A3E0FF120BF0900054EEF0A3EFF0C39486
:10064A00D7EE648094805007D296C29502053790FF
:10065A000054E0FEA3E0FFD394F0EE64809480405F
:10066A0007C296D295020537C3EF94D8EE648094F8
:10067A00805003020537D3EF94EFEE6480948040F4
:0B068A0003020537C296C29502053737
:100C580043E80853E8F843E101E4F5F643F61043A6
:030C6800F6082269
:1007A600E4FDFCEE6003020878EFB40800400302A3
:1007B60008789007BFF82828730207D70207E902CE
:1007C60007FD02081102082502083902084D020831
:1007D6006153E8F043B38053B47FE4F5F643F60182
:1007E60002087353E8F043E80143AC0153ADFEE45D
:1007F600F5F643F602807653E8F043E80243B1800B
:1008060053B27FE4F5F643F604806253E8F043E81A
:100816000343B14053B2BFE4F5F643F608804E53A6
:10082600E8F043E80443B12053B2DFE4F5F643F6BB
:1008360010803A53E8F043E80543B11053B2EFE4B1
:10084600F5F643F620802653E8F043E80643B10860
:1008560053B2F7E4F5F643F640801253E8F043E866
:100866000743B30253B4FDE4F5F643F68043E101D2
:100876008004E4FEFF22C2EFD2EE30EFFDAFC2ED00
:100886004FFDAFC3EF75F010A4FFEC45F0FCED4F44
:03089600AE04FFAE
:01089900223C
:0806950090005EEEF0A3EFF00F
:10069D009000621203C600000000E4900060F0A319
:1006AD00F0900062E0F8A3E0F9A3E0FAA3E0FBC04C
:1006BD0000C001C002C00390005EE0FEA3E0FF1287
:1006CD0007A6E4FCFDD003D002D001D000EB2FFF34
:1006DD00EA3EFEED39FDEC38FC9000621203BA9053
:1006ED000061E004F07006900060E004F0C390003B
:1006FD0061E09464900060E06480948040A3900079
:10070D0062E0FCA3E0FDA3E0FEA3E0FFE41202A182
:10071D00E4FBFA79C878421202047B007AF0797F03
:10072D007845120204E4FBFA79A078401200FB7BB5
:10073D00817A457994783B1202047B817A0479356C
:10074D00783F1202049000661203BA900066E0FC36
:10075D00A3E0FDA3E0FEA3E0FF7466FBFAF9783F8A
:10076D0012000A9000661203BA900066E0FCA3E046
:10077D00FDA3E0FEA3E0FF7B717A3D79CA783F12BD
:10078D0000FB9000661203BA900066E0FCA3E0FD4A
:09079D00A3E0FEA3E0FF0202DF6D
:100B4E0060500000010101010101000000010100DF
:100B5E00000000000101000101000100010101017E
:100B6E00000001000001010000010100010001016F
:100B7E00000101000100010101010100010101005C
:100B8E00000000000101010101010100010101014C
:040B9E000001010051
:0A0C3400EF1FAC0670011E4C6019A2
:100C3E00900065E4F0A37464F090006574FFF5F025
:090C4E0012039645F060DF80F00E
:010C5700227A
:10096300EF75F008A42400F582E43400F583E02455
:10097300FF9280EF75F008A42401F582E43400F5BA
:1009830083E024FF9284EF75F008A42402F582E447
:100993003400F583E024FF9293EF75F008A4240359
:1009A300F582E43400F583E024FF9292EF75F008BA
:1009B300A42404F582E43400F583E024FF9291EF4C
:1009C30075F008A42405F582E43400F583E024FFE0
:1009D3009281EF75F008A42406F582E43400F583D0
:1009E300E024FF9294EF75F008A42407F582E43421
:0909F30000F583E024FF92A0222C
:040BA300E0FB7F02F2
:100BA700AE07D290D282D283D287D2B0D297AF0388
:100BB700120963EEB40115EDB40102C290EDB4025F
:100BC70002C282ED6403701AC2838016EEB4021269
:100BD700EDB40102C287EDB40202C2B0EDB4030264
:090BE700C2977F017E00020C346C
:0A0A880090006AEEF0A3EFF0AA055B
:100A920090006AE0FEA3E0FF7C007D641203607CAC
:100AA200007D0A120360AB0590006AE0FEA3E0FF3E
:100AB2007C007D0A1203607C007D0A120360A3EDB4
:100AC200F090006AE0FEA3E0FF7C007D0A12036062
:100AD200A905AF027D01120BA7AF0290006CE0FBEB
:100AE2000D120BA7AF02AB010D120BA7D283D29747
:010AF20022E1
:0C089A0090005EEEF0A3EFF0AB05AA04A6
:1008A60090005EE0FEA3E0FF7C007D641203607CA6
:1008B600007D0A120360A3EDF090005EE0FEA3E067
:1008C600FF7C007D0A1203607C007D0A12036090A3
:1008D6000061EDF090005EE0FEA3E0FF7C007D0A83
:1008E600120360900062EDF07C007D64AF03AE02FF
:1008F6001203607C007D0A120360A3EDF07C007D8C
:100906000AAF03AE021203607C007D0A120360A3E5
:10091600EDF0AE02AF037C007D0A120360AA0590DB
:100926000060E0FB7D017F01120BA7900061E0FBF8
:100936000D7F01120BA7900062E0FB0D7F01120BE9
:10094600A79000637D01120BA39000640D120BA308
:0C095600AB020D7F02120BA7D283D297D8
:010962002272
:1000030002034BE86480F8E933E83360110460F0DD
:10001300ED33EC337009E8FCE9FDEAFEEBFF220463
:1000230060DED3EB9FEA9EE99DE8C2E78CF0C2F75E
:1000330095F0400CE8CCF8E9CDF9EACEFAEBCFFB2A
:1000430012031685D0F05804700320D5B3E804706A
:10005300075002B2D502035592D5EC0460F7E4CC05
:10006300C0E0C398F8603B94186008400DD0E0FBF3
:1000730002032DE4FBFAC9FC8028E830E406E4C956
:10008300FBE4CAFCE830E305E4C9CACBFCE8540747
:100093006010F8C3E913F9EA13FAEB13FBEC13FC52
:1000A300D8F130F52FC3E49CFCEF9BFFEE9AFEEDF5
:1000B30099FDD0E0FBEF4E4D4C701222DB0302039F
:1000C30052EC2CFCEF33FFEE33FEED33FDED30E766
:1000D300EB02032DEF2BFFEE3AFEED39FDD0E0FBF3
:1000E30050130BBB0003020355ED13FDEE13FEEF9C
:0800F30013FFEC13FC02032DC6
:1000FB00EC4D6011E8497017ED33EC3304600DE4FF
:10010B00FCFFFEFD22E933E8330470F802034B12C7
:10011B00031658046009E4CC2481500628500902C8
:10012B000355284003020352C0E0EB4A7044B980E8
:10013B0006D0E0FB020341EF4E701CBD8008EBFFC5
:10014B00EAFEE9FD80EBE98DF0A4FEE5F00201E4A7
:10015B00E9CDF9EAFEEBFFEF89F0A4FCE5F0CE89DF
:10016B00F0A42EFFE435F0CD89F0A42DFEE435F09C
:10017B008067EF4E7005BD80D780C3EF8BF0A4ACCA
:10018B00F0EE8BF0A42CFCE435F0F8EF8AF0A42C05
:10019B00E5F038FCE433CB8DF0A42CFCE5F03BF818
:1001AB00EE8AF0A42CFCE5F038F8E433CF89F0A408
:1001BB002CFCE5F038CF3400CE89F0A42FFFE5F00E
:1001CB003EFEE433C98DF0A42EFEE5F039CD8AF066
:1001DB00A42FFFE5F03EFEE43DFD33D0E0FB5007DE
:1001EB000BBB000F020355EC2CFCEF33FFEE33FE81
:0601FB00ED33FD02032DAF
:10020100020355EC5D046005E85904700302034BD9
:10021100120316580460F6EC4860F2EC7004FDFE1F
:10022100FF22C860DB2481C85009C39860025006D0
:100231000203529850CAF582E9294B4A7005AB82F4
:1002410002034175F0007C1A7880C3EF9BEE9AEDB2
:1002510099400DC3EF9BFFEE9AFEED99FDE842F048
:10026100DC23ACF0D0E0FFD0E0FED0E0FDAB82209B
:10027100E7101BEB60BAEC2CFCEF33FFEE33FEED25
:1002810033FD02032DE803F830E705C0F075F000F7
:10029100EF2FFFEE33FEED33FD40B830E7C280AA09
:1002A10075F020800E75F010800575F0087D007ED8
:1002B100007F003392D530D5031203ACEC334010EC
:1002C100EF33FFEE33FEED33FDEC33FCD5F0ED22E1
:0E02D100E5F0247EA2D513CC92E7CDCEFF221D
:1002DF00EDD2E7CD33EC3392D524814006E4FFFE17
:1002EF00FDFC22FCE4CFCECDCC24E0501174FF8076
:1002FF00EDC3CC13CCCD13CDCE13CECF13CF047013
:07030F00F030D5DE0203AC63
:10031600E9D2E7C933E833F892D5EDD2E7CD33EC2D
:0703260033FC5002B2D522A6
:10032D00EC30E7100FBF000C0EBE00080DBD000431
:10033D000BEB6014A2D5EB13FCED92E7FD2274FFDD
:10034D00FCFDFEFF22E480F8A2D574FF13FC7D8036
:03035D00E480EF4A
:030000000209FCF6
:0C09FC00787FE4F6D8FD758107020A43FD
:10036000C2D5EC30E709B2D5E4C39DFDE49CFCEEB8
:1003700030E715B2D5E4C39FFFE49EFE1203F7C336
:10038000E49DFDE49CFC80031203F730D507C3E431
:060390009FFFE49EFE2227
:10039600A3F8E0C5F025F0F0E5821582700215831A
:0603A600E0C838F0E82277
:100BF000C2D5E830E70FB2D5E4C39BFBE49AFAE430
:100C000099F9E498F8EC30E717B2D5120C261204E3
:100C100088E4C39BFBE49AFAE499F9E498F880032A
:100C200012048830D50DE4C39FFFE49EFEE49DFDD1
:040C3000E49CFC2222
:0E03AC00C3E49FFFE49EFEE49DFDE49CFC2262
:0C03BA00ECF0A3EDF0A3EEF0A3EFF022B6
:1003C600A8828583F0D083D0821203DD1203DD126A
:1003D60003DD1203DDE473E493A3C583C5F0C5838F
:1003E600C8C582C8F0A3C583C5F0C583C8C582C881
:0103F60022E4
:100A080002051AE493A3F8E493A34003F68001F2E5
:100A180008DFF48029E493A3F85407240CC8C333EF
:100A2800C4540F4420C8834004F456800146F6DFBE
:100A3800E4800B0102040810204080900B4EE47EF5
:100A4800019360BCA3FF543F30E509541FFEE493B3
:100A5800A360010ECF54C025E060A840B8E493A37A
:100A6800FAE493A3F8E493A3C8C582C8CAC583CAA5
:100A7800F0A3C8C582C8CAC583CADFE9DEE780BE5D
:010BA2000052
:1003F700BC000BBE0029EF8DF084FFADF022E4CCEA
:10040700F875F008EF2FFFEE33FEEC33FCEE9DECB2
:10041700984005FCEE9DFE0FD5F0E9E4CEFD22EDF8
:10042700F8F5F0EE8420D21CFEADF075F008EF2F42
:10043700FFED33FD4007985006D5F0F222C398FD33
:050447000FD5F0EA22D0
:10044C0075F008758200EF2FFFEE33FECD33CDCC67
:10045C0033CCC58233C5829BED9AEC99E5829840EA
:10046C000CF582EE9BFEED9AFDEC99FC0FD5F0D6C7
:10047C00E4CEFBE4CDFAE4CCF9A88222B800C1B9F1
:10048C000059BA002DEC8BF084CFCECDFCE5F0CB2F
:10049C00F97818EF2FFFEE33FEED33FDEC33FCEB68
:1004AC0033FB10D703994004EB99FB0FD8E5E4F923
:1004BC00FA227818EF2FFFEE33FEED33FDEC33FC10
:1004CC00C933C910D7059BE99A4007EC9BFCE99A04
:1004DC00F90FD8E0E4C9FAE4CCFB2275F010EF2F49
:1004EC00FFEE33FEED33FDCC33CCC833C810D70749
:1004FC009BEC9AE899400AED9BFDEC9AFCE899F884
:0E050C000FD5F0DAE4CDFBE4CCFAE4C8F92216
:00000001FF
